{
	"contracts-2/FundMe.sol": {
		"FundMe": {
			"abi": [
				{
					"inputs": [
						{
							"internalType": "address",
							"name": "funder",
							"type": "address"
						}
					],
					"name": "addressToAmountFunded",
					"outputs": [
						{
							"internalType": "uint256",
							"name": "amountFunded",
							"type": "uint256"
						}
					],
					"stateMutability": "view",
					"type": "function"
				},
				{
					"inputs": [],
					"name": "fund",
					"outputs": [],
					"stateMutability": "payable",
					"type": "function"
				},
				{
					"inputs": [
						{
							"internalType": "uint256",
							"name": "",
							"type": "uint256"
						}
					],
					"name": "funders",
					"outputs": [
						{
							"internalType": "address",
							"name": "",
							"type": "address"
						}
					],
					"stateMutability": "view",
					"type": "function"
				},
				{
					"inputs": [],
					"name": "minimumUSD",
					"outputs": [
						{
							"internalType": "uint256",
							"name": "",
							"type": "uint256"
						}
					],
					"stateMutability": "view",
					"type": "function"
				},
				{
					"inputs": [],
					"name": "withdraw",
					"outputs": [],
					"stateMutability": "nonpayable",
					"type": "function"
				}
			],
			"devdoc": {
				"kind": "dev",
				"methods": {},
				"version": 1
			},
			"evm": {
				"assembly": "    /* \"contracts-2/FundMe.sol\":199:980  contract FundMe {... */\n  mstore(0x40, 0x80)\n    /* \"contracts-2/FundMe.sol\":293:297  5e18 */\n  0x4563918244f40000\n    /* \"contracts-2/FundMe.sol\":265:297  uint256 public minimumUSD = 5e18 */\n  0x00\n  sstore\n    /* \"contracts-2/FundMe.sol\":199:980  contract FundMe {... */\n  callvalue\n  dup1\n  iszero\n  tag_1\n  jumpi\n  0x00\n  dup1\n  revert\ntag_1:\n  pop\n  dataSize(sub_0)\n  dup1\n  dataOffset(sub_0)\n  0x00\n  codecopy\n  0x00\n  return\nstop\n\nsub_0: assembly {\n        /* \"contracts-2/FundMe.sol\":199:980  contract FundMe {... */\n      mstore(0x40, 0x80)\n      jumpi(tag_1, lt(calldatasize, 0x04))\n      shr(0xe0, calldataload(0x00))\n      dup1\n      0x3430a88c\n      eq\n      tag_2\n      jumpi\n      dup1\n      0x3ccfd60b\n      eq\n      tag_3\n      jumpi\n      dup1\n      0x3e47d6f3\n      eq\n      tag_4\n      jumpi\n      dup1\n      0xb60d4288\n      eq\n      tag_5\n      jumpi\n      dup1\n      0xdc0d3dff\n      eq\n      tag_6\n      jumpi\n    tag_1:\n      0x00\n      dup1\n      revert\n        /* \"contracts-2/FundMe.sol\":265:297  uint256 public minimumUSD = 5e18 */\n    tag_2:\n      callvalue\n      dup1\n      iszero\n      tag_7\n      jumpi\n      0x00\n      dup1\n      revert\n    tag_7:\n      pop\n      tag_8\n      tag_9\n      jump\t// in\n    tag_8:\n      mload(0x40)\n      tag_10\n      swap2\n      swap1\n      tag_11\n      jump\t// in\n    tag_10:\n      mload(0x40)\n      dup1\n      swap2\n      sub\n      swap1\n      return\n        /* \"contracts-2/FundMe.sol\":834:969  function withdraw () public {... */\n    tag_3:\n      callvalue\n      dup1\n      iszero\n      tag_12\n      jumpi\n      0x00\n      dup1\n      revert\n    tag_12:\n      pop\n      tag_13\n      tag_14\n      jump\t// in\n    tag_13:\n      stop\n        /* \"contracts-2/FundMe.sol\":337:413  mapping(address funder => uint256 amountFunded) public addressToAmountFunded */\n    tag_4:\n      callvalue\n      dup1\n      iszero\n      tag_15\n      jumpi\n      0x00\n      dup1\n      revert\n    tag_15:\n      pop\n      tag_16\n      0x04\n      dup1\n      calldatasize\n      sub\n      dup2\n      add\n      swap1\n      tag_17\n      swap2\n      swap1\n      tag_18\n      jump\t// in\n    tag_17:\n      tag_19\n      jump\t// in\n    tag_16:\n      mload(0x40)\n      tag_20\n      swap2\n      swap1\n      tag_11\n      jump\t// in\n    tag_20:\n      mload(0x40)\n      dup1\n      swap2\n      sub\n      swap1\n      return\n        /* \"contracts-2/FundMe.sol\":422:826  function fund() public payable {... */\n    tag_5:\n      tag_21\n      tag_22\n      jump\t// in\n    tag_21:\n      stop\n        /* \"contracts-2/FundMe.sol\":306:330  address[] public funders */\n    tag_6:\n      callvalue\n      dup1\n      iszero\n      tag_23\n      jumpi\n      0x00\n      dup1\n      revert\n    tag_23:\n      pop\n      tag_24\n      0x04\n      dup1\n      calldatasize\n      sub\n      dup2\n      add\n      swap1\n      tag_25\n      swap2\n      swap1\n      tag_26\n      jump\t// in\n    tag_25:\n      tag_27\n      jump\t// in\n    tag_24:\n      mload(0x40)\n      tag_28\n      swap2\n      swap1\n      tag_29\n      jump\t// in\n    tag_28:\n      mload(0x40)\n      dup1\n      swap2\n      sub\n      swap1\n      return\n        /* \"contracts-2/FundMe.sol\":265:297  uint256 public minimumUSD = 5e18 */\n    tag_9:\n      sload(0x00)\n      dup2\n      jump\t// out\n        /* \"contracts-2/FundMe.sol\":834:969  function withdraw () public {... */\n    tag_14:\n        /* \"contracts-2/FundMe.sol\":878:897  uint256 funderIndex */\n      0x00\n        /* \"contracts-2/FundMe.sol\":873:962  for (uint256 funderIndex = 0; funderIndex < funders.length; funderIndex++) {... */\n    tag_31:\n        /* \"contracts-2/FundMe.sol\":917:924  funders */\n      0x01\n        /* \"contracts-2/FundMe.sol\":917:931  funders.length */\n      dup1\n      sload\n      swap1\n      pop\n        /* \"contracts-2/FundMe.sol\":903:914  funderIndex */\n      dup2\n        /* \"contracts-2/FundMe.sol\":903:931  funderIndex < funders.length */\n      lt\n        /* \"contracts-2/FundMe.sol\":873:962  for (uint256 funderIndex = 0; funderIndex < funders.length; funderIndex++) {... */\n      iszero\n      tag_32\n      jumpi\n        /* \"contracts-2/FundMe.sol\":933:946  funderIndex++ */\n      dup1\n      dup1\n      0x01\n      add\n      swap2\n      pop\n      pop\n        /* \"contracts-2/FundMe.sol\":873:962  for (uint256 funderIndex = 0; funderIndex < funders.length; funderIndex++) {... */\n      jump(tag_31)\n    tag_32:\n      pop\n        /* \"contracts-2/FundMe.sol\":834:969  function withdraw () public {... */\n      jump\t// out\n        /* \"contracts-2/FundMe.sol\":337:413  mapping(address funder => uint256 amountFunded) public addressToAmountFunded */\n    tag_19:\n      mstore(0x20, 0x02)\n      dup1\n      0x00\n      mstore\n      keccak256(0x00, 0x40)\n      0x00\n      swap2\n      pop\n      swap1\n      pop\n      sload\n      dup2\n      jump\t// out\n        /* \"contracts-2/FundMe.sol\":422:826  function fund() public payable {... */\n    tag_22:\n        /* \"contracts-2/FundMe.sol\":614:624  minimumUSD */\n      sload(0x00)\n        /* \"contracts-2/FundMe.sol\":582:611  msg.value.getConversionRate() */\n      tag_35\n        /* \"contracts-2/FundMe.sol\":582:591  msg.value */\n      callvalue\n        /* \"contracts-2/FundMe.sol\":582:609  msg.value.getConversionRate */\n      tag_36\n        /* \"contracts-2/FundMe.sol\":582:611  msg.value.getConversionRate() */\n      jump\t// in\n    tag_35:\n        /* \"contracts-2/FundMe.sol\":582:624  msg.value.getConversionRate() > minimumUSD */\n      gt\n        /* \"contracts-2/FundMe.sol\":574:655  require(msg.value.getConversionRate() > minimumUSD, \"Did not send enough ethers\") */\n      tag_37\n      jumpi\n      mload(0x40)\n      0x08c379a000000000000000000000000000000000000000000000000000000000\n      dup2\n      mstore\n      0x04\n      add\n      tag_38\n      swap1\n      tag_39\n      jump\t// in\n    tag_38:\n      mload(0x40)\n      dup1\n      swap2\n      sub\n      swap1\n      revert\n    tag_37:\n        /* \"contracts-2/FundMe.sol\":696:703  funders */\n      0x01\n        /* \"contracts-2/FundMe.sol\":709:719  msg.sender */\n      caller\n        /* \"contracts-2/FundMe.sol\":696:720  funders.push(msg.sender) */\n      swap1\n      dup1\n      0x01\n      dup2\n      sload\n      add\n      dup1\n      dup3\n      sstore\n      dup1\n      swap2\n      pop\n      pop\n      0x01\n      swap1\n      sub\n      swap1\n      0x00\n      mstore\n      keccak256(0x00, 0x20)\n      add\n      0x00\n      swap1\n      swap2\n      swap1\n      swap2\n      swap1\n      swap2\n      0x0100\n      exp\n      dup2\n      sload\n      dup2\n      0xffffffffffffffffffffffffffffffffffffffff\n      mul\n      not\n      and\n      swap1\n      dup4\n      0xffffffffffffffffffffffffffffffffffffffff\n      and\n      mul\n      or\n      swap1\n      sstore\n      pop\n        /* \"contracts-2/FundMe.sol\":803:812  msg.value */\n      callvalue\n        /* \"contracts-2/FundMe.sol\":767:788  addressToAmountFunded */\n      0x02\n        /* \"contracts-2/FundMe.sol\":767:800  addressToAmountFunded[msg.sender] */\n      0x00\n        /* \"contracts-2/FundMe.sol\":789:799  msg.sender */\n      caller\n        /* \"contracts-2/FundMe.sol\":767:800  addressToAmountFunded[msg.sender] */\n      0xffffffffffffffffffffffffffffffffffffffff\n      and\n      0xffffffffffffffffffffffffffffffffffffffff\n      and\n      dup2\n      mstore\n      0x20\n      add\n      swap1\n      dup2\n      mstore\n      0x20\n      add\n      0x00\n      keccak256\n      sload\n        /* \"contracts-2/FundMe.sol\":767:812  addressToAmountFunded[msg.sender] + msg.value */\n      tag_41\n      swap2\n      swap1\n      tag_42\n      jump\t// in\n    tag_41:\n        /* \"contracts-2/FundMe.sol\":731:752  addressToAmountFunded */\n      0x02\n        /* \"contracts-2/FundMe.sol\":731:764  addressToAmountFunded[msg.sender] */\n      0x00\n        /* \"contracts-2/FundMe.sol\":753:763  msg.sender */\n      caller\n        /* \"contracts-2/FundMe.sol\":731:764  addressToAmountFunded[msg.sender] */\n      0xffffffffffffffffffffffffffffffffffffffff\n      and\n      0xffffffffffffffffffffffffffffffffffffffff\n      and\n      dup2\n      mstore\n      0x20\n      add\n      swap1\n      dup2\n      mstore\n      0x20\n      add\n      0x00\n      keccak256\n        /* \"contracts-2/FundMe.sol\":731:812  addressToAmountFunded[msg.sender] = addressToAmountFunded[msg.sender] + msg.value */\n      dup2\n      swap1\n      sstore\n      pop\n        /* \"contracts-2/FundMe.sol\":422:826  function fund() public payable {... */\n      jump\t// out\n        /* \"contracts-2/FundMe.sol\":306:330  address[] public funders */\n    tag_27:\n      0x01\n      dup2\n      dup2\n      sload\n      dup2\n      lt\n      tag_43\n      jumpi\n      0x00\n      dup1\n      revert\n    tag_43:\n      swap1\n      0x00\n      mstore\n      keccak256(0x00, 0x20)\n      add\n      0x00\n      swap2\n      pop\n      sload\n      swap1\n      0x0100\n      exp\n      swap1\n      div\n      0xffffffffffffffffffffffffffffffffffffffff\n      and\n      dup2\n      jump\t// out\n        /* \"contracts-2/PriceConvertor.sol\":951:1246  function getConversionRate(uint256 eathAmount) internal view returns(uint256) {... */\n    tag_36:\n        /* \"contracts-2/PriceConvertor.sol\":1020:1027  uint256 */\n      0x00\n        /* \"contracts-2/PriceConvertor.sol\":1109:1125  uint256 ethPrice */\n      dup1\n        /* \"contracts-2/PriceConvertor.sol\":1128:1138  getPrice() */\n      tag_46\n        /* \"contracts-2/PriceConvertor.sol\":1128:1136  getPrice */\n      tag_47\n        /* \"contracts-2/PriceConvertor.sol\":1128:1138  getPrice() */\n      jump\t// in\n    tag_46:\n        /* \"contracts-2/PriceConvertor.sol\":1109:1138  uint256 ethPrice = getPrice() */\n      swap1\n      pop\n        /* \"contracts-2/PriceConvertor.sol\":1149:1172  uint256 eathAmountInUSD */\n      0x00\n        /* \"contracts-2/PriceConvertor.sol\":1200:1204  1e18 */\n      0x0de0b6b3a7640000\n        /* \"contracts-2/PriceConvertor.sol\":1187:1197  eathAmount */\n      dup5\n        /* \"contracts-2/PriceConvertor.sol\":1176:1184  ethPrice */\n      dup4\n        /* \"contracts-2/PriceConvertor.sol\":1176:1197  ethPrice * eathAmount */\n      tag_48\n      swap2\n      swap1\n      tag_49\n      jump\t// in\n    tag_48:\n        /* \"contracts-2/PriceConvertor.sol\":1175:1204  (ethPrice * eathAmount)/ 1e18 */\n      tag_50\n      swap2\n      swap1\n      tag_51\n      jump\t// in\n    tag_50:\n        /* \"contracts-2/PriceConvertor.sol\":1149:1204  uint256 eathAmountInUSD = (ethPrice * eathAmount)/ 1e18 */\n      swap1\n      pop\n        /* \"contracts-2/PriceConvertor.sol\":1223:1238  eathAmountInUSD */\n      dup1\n        /* \"contracts-2/PriceConvertor.sol\":1216:1238  return eathAmountInUSD */\n      swap3\n      pop\n      pop\n      pop\n        /* \"contracts-2/PriceConvertor.sol\":951:1246  function getConversionRate(uint256 eathAmount) internal view returns(uint256) {... */\n      swap2\n      swap1\n      pop\n      jump\t// out\n        /* \"contracts-2/PriceConvertor.sol\":205:945  function getPrice() internal view returns (uint256){... */\n    tag_47:\n        /* \"contracts-2/PriceConvertor.sol\":248:255  uint256 */\n      0x00\n        /* \"contracts-2/PriceConvertor.sol\":350:381  AggregatorV3Interface priceFeed */\n      dup1\n        /* \"contracts-2/PriceConvertor.sol\":406:448  0x694AA1769357215DE4FAC081bf1f309aDC325306 */\n      0x694aa1769357215de4fac081bf1f309adc325306\n        /* \"contracts-2/PriceConvertor.sol\":350:449  AggregatorV3Interface priceFeed = AggregatorV3Interface(0x694AA1769357215DE4FAC081bf1f309aDC325306) */\n      swap1\n      pop\n        /* \"contracts-2/PriceConvertor.sol\":463:475  int256 price */\n      0x00\n        /* \"contracts-2/PriceConvertor.sol\":482:491  priceFeed */\n      dup2\n        /* \"contracts-2/PriceConvertor.sol\":482:507  priceFeed.latestRoundData */\n      0xffffffffffffffffffffffffffffffffffffffff\n      and\n      0xfeaf968c\n        /* \"contracts-2/PriceConvertor.sol\":482:509  priceFeed.latestRoundData() */\n      mload(0x40)\n      dup2\n      0xffffffff\n      and\n      0xe0\n      shl\n      dup2\n      mstore\n      0x04\n      add\n      0xa0\n      mload(0x40)\n      dup1\n      dup4\n      sub\n      dup2\n      dup7\n      gas\n      staticcall\n      iszero\n      dup1\n      iszero\n      tag_54\n      jumpi\n      returndatasize\n      0x00\n      dup1\n      returndatacopy\n      revert(0x00, returndatasize)\n    tag_54:\n      pop\n      pop\n      pop\n      pop\n      mload(0x40)\n      returndatasize\n      not(0x1f)\n      0x1f\n      dup3\n      add\n      and\n      dup3\n      add\n      dup1\n      0x40\n      mstore\n      pop\n      dup2\n      add\n      swap1\n      tag_55\n      swap2\n      swap1\n      tag_56\n      jump\t// in\n    tag_55:\n        /* \"contracts-2/PriceConvertor.sol\":460:509  (, int256 price,,,) = priceFeed.latestRoundData() */\n      pop\n      pop\n      pop\n      swap2\n      pop\n      pop\n        /* \"contracts-2/PriceConvertor.sol\":932:936  1e10 */\n      0x02540be400\n        /* \"contracts-2/PriceConvertor.sol\":924:929  price */\n      dup2\n        /* \"contracts-2/PriceConvertor.sol\":924:936  price * 1e10 */\n      tag_57\n      swap2\n      swap1\n      tag_58\n      jump\t// in\n    tag_57:\n        /* \"contracts-2/PriceConvertor.sol\":909:937  return uint256(price * 1e10) */\n      swap3\n      pop\n      pop\n      pop\n        /* \"contracts-2/PriceConvertor.sol\":205:945  function getPrice() internal view returns (uint256){... */\n      swap1\n      jump\t// out\n        /* \"#utility.yul\":7:84   */\n    tag_59:\n        /* \"#utility.yul\":44:51   */\n      0x00\n        /* \"#utility.yul\":73:78   */\n      dup2\n        /* \"#utility.yul\":62:78   */\n      swap1\n      pop\n        /* \"#utility.yul\":7:84   */\n      swap2\n      swap1\n      pop\n      jump\t// out\n        /* \"#utility.yul\":90:208   */\n    tag_60:\n        /* \"#utility.yul\":177:201   */\n      tag_86\n        /* \"#utility.yul\":195:200   */\n      dup2\n        /* \"#utility.yul\":177:201   */\n      tag_59\n      jump\t// in\n    tag_86:\n        /* \"#utility.yul\":172:175   */\n      dup3\n        /* \"#utility.yul\":165:202   */\n      mstore\n        /* \"#utility.yul\":90:208   */\n      pop\n      pop\n      jump\t// out\n        /* \"#utility.yul\":214:436   */\n    tag_11:\n        /* \"#utility.yul\":307:311   */\n      0x00\n        /* \"#utility.yul\":345:347   */\n      0x20\n        /* \"#utility.yul\":334:343   */\n      dup3\n        /* \"#utility.yul\":330:348   */\n      add\n        /* \"#utility.yul\":322:348   */\n      swap1\n      pop\n        /* \"#utility.yul\":358:429   */\n      tag_88\n        /* \"#utility.yul\":426:427   */\n      0x00\n        /* \"#utility.yul\":415:424   */\n      dup4\n        /* \"#utility.yul\":411:428   */\n      add\n        /* \"#utility.yul\":402:408   */\n      dup5\n        /* \"#utility.yul\":358:429   */\n      tag_60\n      jump\t// in\n    tag_88:\n        /* \"#utility.yul\":214:436   */\n      swap3\n      swap2\n      pop\n      pop\n      jump\t// out\n        /* \"#utility.yul\":523:640   */\n    tag_62:\n        /* \"#utility.yul\":632:633   */\n      0x00\n        /* \"#utility.yul\":629:630   */\n      dup1\n        /* \"#utility.yul\":622:634   */\n      revert\n        /* \"#utility.yul\":769:895   */\n    tag_64:\n        /* \"#utility.yul\":806:813   */\n      0x00\n        /* \"#utility.yul\":846:888   */\n      0xffffffffffffffffffffffffffffffffffffffff\n        /* \"#utility.yul\":839:844   */\n      dup3\n        /* \"#utility.yul\":835:889   */\n      and\n        /* \"#utility.yul\":824:889   */\n      swap1\n      pop\n        /* \"#utility.yul\":769:895   */\n      swap2\n      swap1\n      pop\n      jump\t// out\n        /* \"#utility.yul\":901:997   */\n    tag_65:\n        /* \"#utility.yul\":938:945   */\n      0x00\n        /* \"#utility.yul\":967:991   */\n      tag_94\n        /* \"#utility.yul\":985:990   */\n      dup3\n        /* \"#utility.yul\":967:991   */\n      tag_64\n      jump\t// in\n    tag_94:\n        /* \"#utility.yul\":956:991   */\n      swap1\n      pop\n        /* \"#utility.yul\":901:997   */\n      swap2\n      swap1\n      pop\n      jump\t// out\n        /* \"#utility.yul\":1003:1125   */\n    tag_66:\n        /* \"#utility.yul\":1076:1100   */\n      tag_96\n        /* \"#utility.yul\":1094:1099   */\n      dup2\n        /* \"#utility.yul\":1076:1100   */\n      tag_65\n      jump\t// in\n    tag_96:\n        /* \"#utility.yul\":1069:1074   */\n      dup2\n        /* \"#utility.yul\":1066:1101   */\n      eq\n        /* \"#utility.yul\":1056:1119   */\n      tag_97\n      jumpi\n        /* \"#utility.yul\":1115:1116   */\n      0x00\n        /* \"#utility.yul\":1112:1113   */\n      dup1\n        /* \"#utility.yul\":1105:1117   */\n      revert\n        /* \"#utility.yul\":1056:1119   */\n    tag_97:\n        /* \"#utility.yul\":1003:1125   */\n      pop\n      jump\t// out\n        /* \"#utility.yul\":1131:1270   */\n    tag_67:\n        /* \"#utility.yul\":1177:1182   */\n      0x00\n        /* \"#utility.yul\":1215:1221   */\n      dup2\n        /* \"#utility.yul\":1202:1222   */\n      calldataload\n        /* \"#utility.yul\":1193:1222   */\n      swap1\n      pop\n        /* \"#utility.yul\":1231:1264   */\n      tag_99\n        /* \"#utility.yul\":1258:1263   */\n      dup2\n        /* \"#utility.yul\":1231:1264   */\n      tag_66\n      jump\t// in\n    tag_99:\n        /* \"#utility.yul\":1131:1270   */\n      swap3\n      swap2\n      pop\n      pop\n      jump\t// out\n        /* \"#utility.yul\":1276:1605   */\n    tag_18:\n        /* \"#utility.yul\":1335:1341   */\n      0x00\n        /* \"#utility.yul\":1384:1386   */\n      0x20\n        /* \"#utility.yul\":1372:1381   */\n      dup3\n        /* \"#utility.yul\":1363:1370   */\n      dup5\n        /* \"#utility.yul\":1359:1382   */\n      sub\n        /* \"#utility.yul\":1355:1387   */\n      slt\n        /* \"#utility.yul\":1352:1471   */\n      iszero\n      tag_101\n      jumpi\n        /* \"#utility.yul\":1390:1469   */\n      tag_102\n      tag_62\n      jump\t// in\n    tag_102:\n        /* \"#utility.yul\":1352:1471   */\n    tag_101:\n        /* \"#utility.yul\":1510:1511   */\n      0x00\n        /* \"#utility.yul\":1535:1588   */\n      tag_103\n        /* \"#utility.yul\":1580:1587   */\n      dup5\n        /* \"#utility.yul\":1571:1577   */\n      dup3\n        /* \"#utility.yul\":1560:1569   */\n      dup6\n        /* \"#utility.yul\":1556:1578   */\n      add\n        /* \"#utility.yul\":1535:1588   */\n      tag_67\n      jump\t// in\n    tag_103:\n        /* \"#utility.yul\":1525:1588   */\n      swap2\n      pop\n        /* \"#utility.yul\":1481:1598   */\n      pop\n        /* \"#utility.yul\":1276:1605   */\n      swap3\n      swap2\n      pop\n      pop\n      jump\t// out\n        /* \"#utility.yul\":1611:1733   */\n    tag_68:\n        /* \"#utility.yul\":1684:1708   */\n      tag_105\n        /* \"#utility.yul\":1702:1707   */\n      dup2\n        /* \"#utility.yul\":1684:1708   */\n      tag_59\n      jump\t// in\n    tag_105:\n        /* \"#utility.yul\":1677:1682   */\n      dup2\n        /* \"#utility.yul\":1674:1709   */\n      eq\n        /* \"#utility.yul\":1664:1727   */\n      tag_106\n      jumpi\n        /* \"#utility.yul\":1723:1724   */\n      0x00\n        /* \"#utility.yul\":1720:1721   */\n      dup1\n        /* \"#utility.yul\":1713:1725   */\n      revert\n        /* \"#utility.yul\":1664:1727   */\n    tag_106:\n        /* \"#utility.yul\":1611:1733   */\n      pop\n      jump\t// out\n        /* \"#utility.yul\":1739:1878   */\n    tag_69:\n        /* \"#utility.yul\":1785:1790   */\n      0x00\n        /* \"#utility.yul\":1823:1829   */\n      dup2\n        /* \"#utility.yul\":1810:1830   */\n      calldataload\n        /* \"#utility.yul\":1801:1830   */\n      swap1\n      pop\n        /* \"#utility.yul\":1839:1872   */\n      tag_108\n        /* \"#utility.yul\":1866:1871   */\n      dup2\n        /* \"#utility.yul\":1839:1872   */\n      tag_68\n      jump\t// in\n    tag_108:\n        /* \"#utility.yul\":1739:1878   */\n      swap3\n      swap2\n      pop\n      pop\n      jump\t// out\n        /* \"#utility.yul\":1884:2213   */\n    tag_26:\n        /* \"#utility.yul\":1943:1949   */\n      0x00\n        /* \"#utility.yul\":1992:1994   */\n      0x20\n        /* \"#utility.yul\":1980:1989   */\n      dup3\n        /* \"#utility.yul\":1971:1978   */\n      dup5\n        /* \"#utility.yul\":1967:1990   */\n      sub\n        /* \"#utility.yul\":1963:1995   */\n      slt\n        /* \"#utility.yul\":1960:2079   */\n      iszero\n      tag_110\n      jumpi\n        /* \"#utility.yul\":1998:2077   */\n      tag_111\n      tag_62\n      jump\t// in\n    tag_111:\n        /* \"#utility.yul\":1960:2079   */\n    tag_110:\n        /* \"#utility.yul\":2118:2119   */\n      0x00\n        /* \"#utility.yul\":2143:2196   */\n      tag_112\n        /* \"#utility.yul\":2188:2195   */\n      dup5\n        /* \"#utility.yul\":2179:2185   */\n      dup3\n        /* \"#utility.yul\":2168:2177   */\n      dup6\n        /* \"#utility.yul\":2164:2186   */\n      add\n        /* \"#utility.yul\":2143:2196   */\n      tag_69\n      jump\t// in\n    tag_112:\n        /* \"#utility.yul\":2133:2196   */\n      swap2\n      pop\n        /* \"#utility.yul\":2089:2206   */\n      pop\n        /* \"#utility.yul\":1884:2213   */\n      swap3\n      swap2\n      pop\n      pop\n      jump\t// out\n        /* \"#utility.yul\":2219:2337   */\n    tag_70:\n        /* \"#utility.yul\":2306:2330   */\n      tag_114\n        /* \"#utility.yul\":2324:2329   */\n      dup2\n        /* \"#utility.yul\":2306:2330   */\n      tag_65\n      jump\t// in\n    tag_114:\n        /* \"#utility.yul\":2301:2304   */\n      dup3\n        /* \"#utility.yul\":2294:2331   */\n      mstore\n        /* \"#utility.yul\":2219:2337   */\n      pop\n      pop\n      jump\t// out\n        /* \"#utility.yul\":2343:2565   */\n    tag_29:\n        /* \"#utility.yul\":2436:2440   */\n      0x00\n        /* \"#utility.yul\":2474:2476   */\n      0x20\n        /* \"#utility.yul\":2463:2472   */\n      dup3\n        /* \"#utility.yul\":2459:2477   */\n      add\n        /* \"#utility.yul\":2451:2477   */\n      swap1\n      pop\n        /* \"#utility.yul\":2487:2558   */\n      tag_116\n        /* \"#utility.yul\":2555:2556   */\n      0x00\n        /* \"#utility.yul\":2544:2553   */\n      dup4\n        /* \"#utility.yul\":2540:2557   */\n      add\n        /* \"#utility.yul\":2531:2537   */\n      dup5\n        /* \"#utility.yul\":2487:2558   */\n      tag_70\n      jump\t// in\n    tag_116:\n        /* \"#utility.yul\":2343:2565   */\n      swap3\n      swap2\n      pop\n      pop\n      jump\t// out\n        /* \"#utility.yul\":2571:2740   */\n    tag_71:\n        /* \"#utility.yul\":2655:2666   */\n      0x00\n        /* \"#utility.yul\":2689:2695   */\n      dup3\n        /* \"#utility.yul\":2684:2687   */\n      dup3\n        /* \"#utility.yul\":2677:2696   */\n      mstore\n        /* \"#utility.yul\":2729:2733   */\n      0x20\n        /* \"#utility.yul\":2724:2727   */\n      dup3\n        /* \"#utility.yul\":2720:2734   */\n      add\n        /* \"#utility.yul\":2705:2734   */\n      swap1\n      pop\n        /* \"#utility.yul\":2571:2740   */\n      swap3\n      swap2\n      pop\n      pop\n      jump\t// out\n        /* \"#utility.yul\":2746:2922   */\n    tag_72:\n        /* \"#utility.yul\":2886:2914   */\n      0x446964206e6f742073656e6420656e6f75676820657468657273000000000000\n        /* \"#utility.yul\":2882:2883   */\n      0x00\n        /* \"#utility.yul\":2874:2880   */\n      dup3\n        /* \"#utility.yul\":2870:2884   */\n      add\n        /* \"#utility.yul\":2863:2915   */\n      mstore\n        /* \"#utility.yul\":2746:2922   */\n      pop\n      jump\t// out\n        /* \"#utility.yul\":2928:3294   */\n    tag_73:\n        /* \"#utility.yul\":3070:3073   */\n      0x00\n        /* \"#utility.yul\":3091:3158   */\n      tag_120\n        /* \"#utility.yul\":3155:3157   */\n      0x1a\n        /* \"#utility.yul\":3150:3153   */\n      dup4\n        /* \"#utility.yul\":3091:3158   */\n      tag_71\n      jump\t// in\n    tag_120:\n        /* \"#utility.yul\":3084:3158   */\n      swap2\n      pop\n        /* \"#utility.yul\":3167:3260   */\n      tag_121\n        /* \"#utility.yul\":3256:3259   */\n      dup3\n        /* \"#utility.yul\":3167:3260   */\n      tag_72\n      jump\t// in\n    tag_121:\n        /* \"#utility.yul\":3285:3287   */\n      0x20\n        /* \"#utility.yul\":3280:3283   */\n      dup3\n        /* \"#utility.yul\":3276:3288   */\n      add\n        /* \"#utility.yul\":3269:3288   */\n      swap1\n      pop\n        /* \"#utility.yul\":2928:3294   */\n      swap2\n      swap1\n      pop\n      jump\t// out\n        /* \"#utility.yul\":3300:3719   */\n    tag_39:\n        /* \"#utility.yul\":3466:3470   */\n      0x00\n        /* \"#utility.yul\":3504:3506   */\n      0x20\n        /* \"#utility.yul\":3493:3502   */\n      dup3\n        /* \"#utility.yul\":3489:3507   */\n      add\n        /* \"#utility.yul\":3481:3507   */\n      swap1\n      pop\n        /* \"#utility.yul\":3553:3562   */\n      dup2\n        /* \"#utility.yul\":3547:3551   */\n      dup2\n        /* \"#utility.yul\":3543:3563   */\n      sub\n        /* \"#utility.yul\":3539:3540   */\n      0x00\n        /* \"#utility.yul\":3528:3537   */\n      dup4\n        /* \"#utility.yul\":3524:3541   */\n      add\n        /* \"#utility.yul\":3517:3564   */\n      mstore\n        /* \"#utility.yul\":3581:3712   */\n      tag_123\n        /* \"#utility.yul\":3707:3711   */\n      dup2\n        /* \"#utility.yul\":3581:3712   */\n      tag_73\n      jump\t// in\n    tag_123:\n        /* \"#utility.yul\":3573:3712   */\n      swap1\n      pop\n        /* \"#utility.yul\":3300:3719   */\n      swap2\n      swap1\n      pop\n      jump\t// out\n        /* \"#utility.yul\":3725:3905   */\n    tag_74:\n        /* \"#utility.yul\":3773:3850   */\n      0x4e487b7100000000000000000000000000000000000000000000000000000000\n        /* \"#utility.yul\":3770:3771   */\n      0x00\n        /* \"#utility.yul\":3763:3851   */\n      mstore\n        /* \"#utility.yul\":3870:3874   */\n      0x11\n        /* \"#utility.yul\":3867:3868   */\n      0x04\n        /* \"#utility.yul\":3860:3875   */\n      mstore\n        /* \"#utility.yul\":3894:3898   */\n      0x24\n        /* \"#utility.yul\":3891:3892   */\n      0x00\n        /* \"#utility.yul\":3884:3899   */\n      revert\n        /* \"#utility.yul\":3911:4102   */\n    tag_42:\n        /* \"#utility.yul\":3951:3954   */\n      0x00\n        /* \"#utility.yul\":3970:3990   */\n      tag_126\n        /* \"#utility.yul\":3988:3989   */\n      dup3\n        /* \"#utility.yul\":3970:3990   */\n      tag_59\n      jump\t// in\n    tag_126:\n        /* \"#utility.yul\":3965:3990   */\n      swap2\n      pop\n        /* \"#utility.yul\":4004:4024   */\n      tag_127\n        /* \"#utility.yul\":4022:4023   */\n      dup4\n        /* \"#utility.yul\":4004:4024   */\n      tag_59\n      jump\t// in\n    tag_127:\n        /* \"#utility.yul\":3999:4024   */\n      swap3\n      pop\n        /* \"#utility.yul\":4047:4048   */\n      dup3\n        /* \"#utility.yul\":4044:4045   */\n      dup3\n        /* \"#utility.yul\":4040:4049   */\n      add\n        /* \"#utility.yul\":4033:4049   */\n      swap1\n      pop\n        /* \"#utility.yul\":4068:4071   */\n      dup1\n        /* \"#utility.yul\":4065:4066   */\n      dup3\n        /* \"#utility.yul\":4062:4072   */\n      gt\n        /* \"#utility.yul\":4059:4095   */\n      iszero\n      tag_128\n      jumpi\n        /* \"#utility.yul\":4075:4093   */\n      tag_129\n      tag_74\n      jump\t// in\n    tag_129:\n        /* \"#utility.yul\":4059:4095   */\n    tag_128:\n        /* \"#utility.yul\":3911:4102   */\n      swap3\n      swap2\n      pop\n      pop\n      jump\t// out\n        /* \"#utility.yul\":4108:4518   */\n    tag_49:\n        /* \"#utility.yul\":4148:4155   */\n      0x00\n        /* \"#utility.yul\":4171:4191   */\n      tag_131\n        /* \"#utility.yul\":4189:4190   */\n      dup3\n        /* \"#utility.yul\":4171:4191   */\n      tag_59\n      jump\t// in\n    tag_131:\n        /* \"#utility.yul\":4166:4191   */\n      swap2\n      pop\n        /* \"#utility.yul\":4205:4225   */\n      tag_132\n        /* \"#utility.yul\":4223:4224   */\n      dup4\n        /* \"#utility.yul\":4205:4225   */\n      tag_59\n      jump\t// in\n    tag_132:\n        /* \"#utility.yul\":4200:4225   */\n      swap3\n      pop\n        /* \"#utility.yul\":4260:4261   */\n      dup3\n        /* \"#utility.yul\":4257:4258   */\n      dup3\n        /* \"#utility.yul\":4253:4262   */\n      mul\n        /* \"#utility.yul\":4282:4312   */\n      tag_133\n        /* \"#utility.yul\":4300:4311   */\n      dup2\n        /* \"#utility.yul\":4282:4312   */\n      tag_59\n      jump\t// in\n    tag_133:\n        /* \"#utility.yul\":4271:4312   */\n      swap2\n      pop\n        /* \"#utility.yul\":4461:4462   */\n      dup3\n        /* \"#utility.yul\":4452:4459   */\n      dup3\n        /* \"#utility.yul\":4448:4463   */\n      div\n        /* \"#utility.yul\":4445:4446   */\n      dup5\n        /* \"#utility.yul\":4442:4464   */\n      eq\n        /* \"#utility.yul\":4422:4423   */\n      dup4\n        /* \"#utility.yul\":4415:4424   */\n      iszero\n        /* \"#utility.yul\":4395:4478   */\n      or\n        /* \"#utility.yul\":4372:4511   */\n      tag_134\n      jumpi\n        /* \"#utility.yul\":4491:4509   */\n      tag_135\n      tag_74\n      jump\t// in\n    tag_135:\n        /* \"#utility.yul\":4372:4511   */\n    tag_134:\n        /* \"#utility.yul\":4156:4518   */\n      pop\n        /* \"#utility.yul\":4108:4518   */\n      swap3\n      swap2\n      pop\n      pop\n      jump\t// out\n        /* \"#utility.yul\":4524:4704   */\n    tag_75:\n        /* \"#utility.yul\":4572:4649   */\n      0x4e487b7100000000000000000000000000000000000000000000000000000000\n        /* \"#utility.yul\":4569:4570   */\n      0x00\n        /* \"#utility.yul\":4562:4650   */\n      mstore\n        /* \"#utility.yul\":4669:4673   */\n      0x12\n        /* \"#utility.yul\":4666:4667   */\n      0x04\n        /* \"#utility.yul\":4659:4674   */\n      mstore\n        /* \"#utility.yul\":4693:4697   */\n      0x24\n        /* \"#utility.yul\":4690:4691   */\n      0x00\n        /* \"#utility.yul\":4683:4698   */\n      revert\n        /* \"#utility.yul\":4710:4895   */\n    tag_51:\n        /* \"#utility.yul\":4750:4751   */\n      0x00\n        /* \"#utility.yul\":4767:4787   */\n      tag_138\n        /* \"#utility.yul\":4785:4786   */\n      dup3\n        /* \"#utility.yul\":4767:4787   */\n      tag_59\n      jump\t// in\n    tag_138:\n        /* \"#utility.yul\":4762:4787   */\n      swap2\n      pop\n        /* \"#utility.yul\":4801:4821   */\n      tag_139\n        /* \"#utility.yul\":4819:4820   */\n      dup4\n        /* \"#utility.yul\":4801:4821   */\n      tag_59\n      jump\t// in\n    tag_139:\n        /* \"#utility.yul\":4796:4821   */\n      swap3\n      pop\n        /* \"#utility.yul\":4840:4841   */\n      dup3\n        /* \"#utility.yul\":4830:4865   */\n      tag_140\n      jumpi\n        /* \"#utility.yul\":4845:4863   */\n      tag_141\n      tag_75\n      jump\t// in\n    tag_141:\n        /* \"#utility.yul\":4830:4865   */\n    tag_140:\n        /* \"#utility.yul\":4887:4888   */\n      dup3\n        /* \"#utility.yul\":4884:4885   */\n      dup3\n        /* \"#utility.yul\":4880:4889   */\n      div\n        /* \"#utility.yul\":4875:4889   */\n      swap1\n      pop\n        /* \"#utility.yul\":4710:4895   */\n      swap3\n      swap2\n      pop\n      pop\n      jump\t// out\n        /* \"#utility.yul\":4901:5006   */\n    tag_76:\n        /* \"#utility.yul\":4937:4944   */\n      0x00\n        /* \"#utility.yul\":4977:4999   */\n      0xffffffffffffffffffff\n        /* \"#utility.yul\":4970:4975   */\n      dup3\n        /* \"#utility.yul\":4966:5000   */\n      and\n        /* \"#utility.yul\":4955:5000   */\n      swap1\n      pop\n        /* \"#utility.yul\":4901:5006   */\n      swap2\n      swap1\n      pop\n      jump\t// out\n        /* \"#utility.yul\":5012:5132   */\n    tag_77:\n        /* \"#utility.yul\":5084:5107   */\n      tag_144\n        /* \"#utility.yul\":5101:5106   */\n      dup2\n        /* \"#utility.yul\":5084:5107   */\n      tag_76\n      jump\t// in\n    tag_144:\n        /* \"#utility.yul\":5077:5082   */\n      dup2\n        /* \"#utility.yul\":5074:5108   */\n      eq\n        /* \"#utility.yul\":5064:5126   */\n      tag_145\n      jumpi\n        /* \"#utility.yul\":5122:5123   */\n      0x00\n        /* \"#utility.yul\":5119:5120   */\n      dup1\n        /* \"#utility.yul\":5112:5124   */\n      revert\n        /* \"#utility.yul\":5064:5126   */\n    tag_145:\n        /* \"#utility.yul\":5012:5132   */\n      pop\n      jump\t// out\n        /* \"#utility.yul\":5138:5279   */\n    tag_78:\n        /* \"#utility.yul\":5194:5199   */\n      0x00\n        /* \"#utility.yul\":5225:5231   */\n      dup2\n        /* \"#utility.yul\":5219:5232   */\n      mload\n        /* \"#utility.yul\":5210:5232   */\n      swap1\n      pop\n        /* \"#utility.yul\":5241:5273   */\n      tag_147\n        /* \"#utility.yul\":5267:5272   */\n      dup2\n        /* \"#utility.yul\":5241:5273   */\n      tag_77\n      jump\t// in\n    tag_147:\n        /* \"#utility.yul\":5138:5279   */\n      swap3\n      swap2\n      pop\n      pop\n      jump\t// out\n        /* \"#utility.yul\":5285:5361   */\n    tag_79:\n        /* \"#utility.yul\":5321:5328   */\n      0x00\n        /* \"#utility.yul\":5350:5355   */\n      dup2\n        /* \"#utility.yul\":5339:5355   */\n      swap1\n      pop\n        /* \"#utility.yul\":5285:5361   */\n      swap2\n      swap1\n      pop\n      jump\t// out\n        /* \"#utility.yul\":5367:5487   */\n    tag_80:\n        /* \"#utility.yul\":5439:5462   */\n      tag_150\n        /* \"#utility.yul\":5456:5461   */\n      dup2\n        /* \"#utility.yul\":5439:5462   */\n      tag_79\n      jump\t// in\n    tag_150:\n        /* \"#utility.yul\":5432:5437   */\n      dup2\n        /* \"#utility.yul\":5429:5463   */\n      eq\n        /* \"#utility.yul\":5419:5481   */\n      tag_151\n      jumpi\n        /* \"#utility.yul\":5477:5478   */\n      0x00\n        /* \"#utility.yul\":5474:5475   */\n      dup1\n        /* \"#utility.yul\":5467:5479   */\n      revert\n        /* \"#utility.yul\":5419:5481   */\n    tag_151:\n        /* \"#utility.yul\":5367:5487   */\n      pop\n      jump\t// out\n        /* \"#utility.yul\":5493:5634   */\n    tag_81:\n        /* \"#utility.yul\":5549:5554   */\n      0x00\n        /* \"#utility.yul\":5580:5586   */\n      dup2\n        /* \"#utility.yul\":5574:5587   */\n      mload\n        /* \"#utility.yul\":5565:5587   */\n      swap1\n      pop\n        /* \"#utility.yul\":5596:5628   */\n      tag_153\n        /* \"#utility.yul\":5622:5627   */\n      dup2\n        /* \"#utility.yul\":5596:5628   */\n      tag_80\n      jump\t// in\n    tag_153:\n        /* \"#utility.yul\":5493:5634   */\n      swap3\n      swap2\n      pop\n      pop\n      jump\t// out\n        /* \"#utility.yul\":5640:5783   */\n    tag_82:\n        /* \"#utility.yul\":5697:5702   */\n      0x00\n        /* \"#utility.yul\":5728:5734   */\n      dup2\n        /* \"#utility.yul\":5722:5735   */\n      mload\n        /* \"#utility.yul\":5713:5735   */\n      swap1\n      pop\n        /* \"#utility.yul\":5744:5777   */\n      tag_155\n        /* \"#utility.yul\":5771:5776   */\n      dup2\n        /* \"#utility.yul\":5744:5777   */\n      tag_68\n      jump\t// in\n    tag_155:\n        /* \"#utility.yul\":5640:5783   */\n      swap3\n      swap2\n      pop\n      pop\n      jump\t// out\n        /* \"#utility.yul\":5789:6760   */\n    tag_56:\n        /* \"#utility.yul\":5892:5898   */\n      0x00\n        /* \"#utility.yul\":5900:5906   */\n      dup1\n        /* \"#utility.yul\":5908:5914   */\n      0x00\n        /* \"#utility.yul\":5916:5922   */\n      dup1\n        /* \"#utility.yul\":5924:5930   */\n      0x00\n        /* \"#utility.yul\":5973:5976   */\n      0xa0\n        /* \"#utility.yul\":5961:5970   */\n      dup7\n        /* \"#utility.yul\":5952:5959   */\n      dup9\n        /* \"#utility.yul\":5948:5971   */\n      sub\n        /* \"#utility.yul\":5944:5977   */\n      slt\n        /* \"#utility.yul\":5941:6061   */\n      iszero\n      tag_157\n      jumpi\n        /* \"#utility.yul\":5980:6059   */\n      tag_158\n      tag_62\n      jump\t// in\n    tag_158:\n        /* \"#utility.yul\":5941:6061   */\n    tag_157:\n        /* \"#utility.yul\":6100:6101   */\n      0x00\n        /* \"#utility.yul\":6125:6188   */\n      tag_159\n        /* \"#utility.yul\":6180:6187   */\n      dup9\n        /* \"#utility.yul\":6171:6177   */\n      dup3\n        /* \"#utility.yul\":6160:6169   */\n      dup10\n        /* \"#utility.yul\":6156:6178   */\n      add\n        /* \"#utility.yul\":6125:6188   */\n      tag_78\n      jump\t// in\n    tag_159:\n        /* \"#utility.yul\":6115:6188   */\n      swap6\n      pop\n        /* \"#utility.yul\":6071:6198   */\n      pop\n        /* \"#utility.yul\":6237:6239   */\n      0x20\n        /* \"#utility.yul\":6263:6326   */\n      tag_160\n        /* \"#utility.yul\":6318:6325   */\n      dup9\n        /* \"#utility.yul\":6309:6315   */\n      dup3\n        /* \"#utility.yul\":6298:6307   */\n      dup10\n        /* \"#utility.yul\":6294:6316   */\n      add\n        /* \"#utility.yul\":6263:6326   */\n      tag_81\n      jump\t// in\n    tag_160:\n        /* \"#utility.yul\":6253:6326   */\n      swap5\n      pop\n        /* \"#utility.yul\":6208:6336   */\n      pop\n        /* \"#utility.yul\":6375:6377   */\n      0x40\n        /* \"#utility.yul\":6401:6465   */\n      tag_161\n        /* \"#utility.yul\":6457:6464   */\n      dup9\n        /* \"#utility.yul\":6448:6454   */\n      dup3\n        /* \"#utility.yul\":6437:6446   */\n      dup10\n        /* \"#utility.yul\":6433:6455   */\n      add\n        /* \"#utility.yul\":6401:6465   */\n      tag_82\n      jump\t// in\n    tag_161:\n        /* \"#utility.yul\":6391:6465   */\n      swap4\n      pop\n        /* \"#utility.yul\":6346:6475   */\n      pop\n        /* \"#utility.yul\":6514:6516   */\n      0x60\n        /* \"#utility.yul\":6540:6604   */\n      tag_162\n        /* \"#utility.yul\":6596:6603   */\n      dup9\n        /* \"#utility.yul\":6587:6593   */\n      dup3\n        /* \"#utility.yul\":6576:6585   */\n      dup10\n        /* \"#utility.yul\":6572:6594   */\n      add\n        /* \"#utility.yul\":6540:6604   */\n      tag_82\n      jump\t// in\n    tag_162:\n        /* \"#utility.yul\":6530:6604   */\n      swap3\n      pop\n        /* \"#utility.yul\":6485:6614   */\n      pop\n        /* \"#utility.yul\":6653:6656   */\n      0x80\n        /* \"#utility.yul\":6680:6743   */\n      tag_163\n        /* \"#utility.yul\":6735:6742   */\n      dup9\n        /* \"#utility.yul\":6726:6732   */\n      dup3\n        /* \"#utility.yul\":6715:6724   */\n      dup10\n        /* \"#utility.yul\":6711:6733   */\n      add\n        /* \"#utility.yul\":6680:6743   */\n      tag_78\n      jump\t// in\n    tag_163:\n        /* \"#utility.yul\":6670:6743   */\n      swap2\n      pop\n        /* \"#utility.yul\":6624:6753   */\n      pop\n        /* \"#utility.yul\":5789:6760   */\n      swap3\n      swap6\n      pop\n      swap3\n      swap6\n      swap1\n      swap4\n      pop\n      jump\t// out\n        /* \"#utility.yul\":6766:7322   */\n    tag_58:\n        /* \"#utility.yul\":6805:6812   */\n      0x00\n        /* \"#utility.yul\":6828:6847   */\n      tag_165\n        /* \"#utility.yul\":6845:6846   */\n      dup3\n        /* \"#utility.yul\":6828:6847   */\n      tag_79\n      jump\t// in\n    tag_165:\n        /* \"#utility.yul\":6823:6847   */\n      swap2\n      pop\n        /* \"#utility.yul\":6861:6880   */\n      tag_166\n        /* \"#utility.yul\":6878:6879   */\n      dup4\n        /* \"#utility.yul\":6861:6880   */\n      tag_79\n      jump\t// in\n    tag_166:\n        /* \"#utility.yul\":6856:6880   */\n      swap3\n      pop\n        /* \"#utility.yul\":6915:6916   */\n      dup3\n        /* \"#utility.yul\":6912:6913   */\n      dup3\n        /* \"#utility.yul\":6908:6917   */\n      mul\n        /* \"#utility.yul\":6937:6966   */\n      tag_167\n        /* \"#utility.yul\":6954:6965   */\n      dup2\n        /* \"#utility.yul\":6937:6966   */\n      tag_79\n      jump\t// in\n    tag_167:\n        /* \"#utility.yul\":6926:6966   */\n      swap2\n      pop\n        /* \"#utility.yul\":7024:7090   */\n      0x8000000000000000000000000000000000000000000000000000000000000000\n        /* \"#utility.yul\":7021:7022   */\n      dup5\n        /* \"#utility.yul\":7018:7091   */\n      eq\n        /* \"#utility.yul\":7014:7015   */\n      0x00\n        /* \"#utility.yul\":7011:7012   */\n      dup5\n        /* \"#utility.yul\":7007:7016   */\n      slt\n        /* \"#utility.yul\":7003:7092   */\n      and\n        /* \"#utility.yul\":7000:7115   */\n      iszero\n      tag_168\n      jumpi\n        /* \"#utility.yul\":7095:7113   */\n      tag_169\n      tag_74\n      jump\t// in\n    tag_169:\n        /* \"#utility.yul\":7000:7115   */\n    tag_168:\n        /* \"#utility.yul\":7265:7266   */\n      dup3\n        /* \"#utility.yul\":7256:7263   */\n      dup3\n        /* \"#utility.yul\":7251:7267   */\n      sdiv\n        /* \"#utility.yul\":7248:7249   */\n      dup5\n        /* \"#utility.yul\":7245:7268   */\n      eq\n        /* \"#utility.yul\":7225:7226   */\n      dup4\n        /* \"#utility.yul\":7218:7227   */\n      iszero\n        /* \"#utility.yul\":7198:7282   */\n      or\n        /* \"#utility.yul\":7175:7315   */\n      tag_170\n      jumpi\n        /* \"#utility.yul\":7295:7313   */\n      tag_171\n      tag_74\n      jump\t// in\n    tag_171:\n        /* \"#utility.yul\":7175:7315   */\n    tag_170:\n        /* \"#utility.yul\":6813:7322   */\n      pop\n        /* \"#utility.yul\":6766:7322   */\n      swap3\n      swap2\n      pop\n      pop\n      jump\t// out\n\n    auxdata: 0xa26469706673582212203e1efa6c7d1f4c9c2a461cdbe7eed7a7315b8bd710718dc28f6039abbbc4f98764736f6c63430008180033\n}\n",
				"bytecode": {
					"linkReferences": {},
					"object": "6080604052674563918244f400005f5534801561001a575f80fd5b506107ed806100285f395ff3fe608060405260043610610049575f3560e01c80633430a88c1461004d5780633ccfd60b146100775780633e47d6f31461008d578063b60d4288146100c9578063dc0d3dff146100d3575b5f80fd5b348015610058575f80fd5b5061006161010f565b60405161006e91906103af565b60405180910390f35b348015610082575f80fd5b5061008b610114565b005b348015610098575f80fd5b506100b360048036038101906100ae9190610426565b610133565b6040516100c091906103af565b60405180910390f35b6100d1610148565b005b3480156100de575f80fd5b506100f960048036038101906100f4919061047b565b61027f565b60405161010691906104b5565b60405180910390f35b5f5481565b5f5b600180549050811015610130578080600101915050610116565b50565b6002602052805f5260405f205f915090505481565b5f54610153346102ba565b11610193576040517f08c379a000000000000000000000000000000000000000000000000000000000815260040161018a90610528565b60405180910390fd5b600133908060018154018082558091505060019003905f5260205f20015f9091909190916101000a81548173ffffffffffffffffffffffffffffffffffffffff021916908373ffffffffffffffffffffffffffffffffffffffff1602179055503460025f3373ffffffffffffffffffffffffffffffffffffffff1673ffffffffffffffffffffffffffffffffffffffff1681526020019081526020015f205461023c9190610573565b60025f3373ffffffffffffffffffffffffffffffffffffffff1673ffffffffffffffffffffffffffffffffffffffff1681526020019081526020015f2081905550565b6001818154811061028e575f80fd5b905f5260205f20015f915054906101000a900473ffffffffffffffffffffffffffffffffffffffff1681565b5f806102c46102f2565b90505f670de0b6b3a764000084836102dc91906105a6565b6102e69190610614565b90508092505050919050565b5f8073694aa1769357215de4fac081bf1f309adc32530690505f8173ffffffffffffffffffffffffffffffffffffffff1663feaf968c6040518163ffffffff1660e01b815260040160a060405180830381865afa158015610355573d5f803e3d5ffd5b505050506040513d601f19601f8201168201806040525081019061037991906106ca565b5050509150506402540be400816103909190610741565b9250505090565b5f819050919050565b6103a981610397565b82525050565b5f6020820190506103c25f8301846103a0565b92915050565b5f80fd5b5f73ffffffffffffffffffffffffffffffffffffffff82169050919050565b5f6103f5826103cc565b9050919050565b610405816103eb565b811461040f575f80fd5b50565b5f81359050610420816103fc565b92915050565b5f6020828403121561043b5761043a6103c8565b5b5f61044884828501610412565b91505092915050565b61045a81610397565b8114610464575f80fd5b50565b5f8135905061047581610451565b92915050565b5f602082840312156104905761048f6103c8565b5b5f61049d84828501610467565b91505092915050565b6104af816103eb565b82525050565b5f6020820190506104c85f8301846104a6565b92915050565b5f82825260208201905092915050565b7f446964206e6f742073656e6420656e6f756768206574686572730000000000005f82015250565b5f610512601a836104ce565b915061051d826104de565b602082019050919050565b5f6020820190508181035f83015261053f81610506565b9050919050565b7f4e487b71000000000000000000000000000000000000000000000000000000005f52601160045260245ffd5b5f61057d82610397565b915061058883610397565b92508282019050808211156105a05761059f610546565b5b92915050565b5f6105b082610397565b91506105bb83610397565b92508282026105c981610397565b915082820484148315176105e0576105df610546565b5b5092915050565b7f4e487b71000000000000000000000000000000000000000000000000000000005f52601260045260245ffd5b5f61061e82610397565b915061062983610397565b925082610639576106386105e7565b5b828204905092915050565b5f69ffffffffffffffffffff82169050919050565b61066281610644565b811461066c575f80fd5b50565b5f8151905061067d81610659565b92915050565b5f819050919050565b61069581610683565b811461069f575f80fd5b50565b5f815190506106b08161068c565b92915050565b5f815190506106c481610451565b92915050565b5f805f805f60a086880312156106e3576106e26103c8565b5b5f6106f08882890161066f565b9550506020610701888289016106a2565b9450506040610712888289016106b6565b9350506060610723888289016106b6565b92505060806107348882890161066f565b9150509295509295909350565b5f61074b82610683565b915061075683610683565b925082820261076481610683565b91507f800000000000000000000000000000000000000000000000000000000000000084145f8412161561079b5761079a610546565b5b82820584148315176107b0576107af610546565b5b509291505056fea26469706673582212203e1efa6c7d1f4c9c2a461cdbe7eed7a7315b8bd710718dc28f6039abbbc4f98764736f6c63430008180033",
					"opcodes": "PUSH1 0x80 PUSH1 0x40 MSTORE PUSH8 0x4563918244F40000 PUSH0 SSTORE CALLVALUE DUP1 ISZERO PUSH2 0x1A JUMPI PUSH0 DUP1 REVERT JUMPDEST POP PUSH2 0x7ED DUP1 PUSH2 0x28 PUSH0 CODECOPY PUSH0 RETURN INVALID PUSH1 0x80 PUSH1 0x40 MSTORE PUSH1 0x4 CALLDATASIZE LT PUSH2 0x49 JUMPI PUSH0 CALLDATALOAD PUSH1 0xE0 SHR DUP1 PUSH4 0x3430A88C EQ PUSH2 0x4D JUMPI DUP1 PUSH4 0x3CCFD60B EQ PUSH2 0x77 JUMPI DUP1 PUSH4 0x3E47D6F3 EQ PUSH2 0x8D JUMPI DUP1 PUSH4 0xB60D4288 EQ PUSH2 0xC9 JUMPI DUP1 PUSH4 0xDC0D3DFF EQ PUSH2 0xD3 JUMPI JUMPDEST PUSH0 DUP1 REVERT JUMPDEST CALLVALUE DUP1 ISZERO PUSH2 0x58 JUMPI PUSH0 DUP1 REVERT JUMPDEST POP PUSH2 0x61 PUSH2 0x10F JUMP JUMPDEST PUSH1 0x40 MLOAD PUSH2 0x6E SWAP2 SWAP1 PUSH2 0x3AF JUMP JUMPDEST PUSH1 0x40 MLOAD DUP1 SWAP2 SUB SWAP1 RETURN JUMPDEST CALLVALUE DUP1 ISZERO PUSH2 0x82 JUMPI PUSH0 DUP1 REVERT JUMPDEST POP PUSH2 0x8B PUSH2 0x114 JUMP JUMPDEST STOP JUMPDEST CALLVALUE DUP1 ISZERO PUSH2 0x98 JUMPI PUSH0 DUP1 REVERT JUMPDEST POP PUSH2 0xB3 PUSH1 0x4 DUP1 CALLDATASIZE SUB DUP2 ADD SWAP1 PUSH2 0xAE SWAP2 SWAP1 PUSH2 0x426 JUMP JUMPDEST PUSH2 0x133 JUMP JUMPDEST PUSH1 0x40 MLOAD PUSH2 0xC0 SWAP2 SWAP1 PUSH2 0x3AF JUMP JUMPDEST PUSH1 0x40 MLOAD DUP1 SWAP2 SUB SWAP1 RETURN JUMPDEST PUSH2 0xD1 PUSH2 0x148 JUMP JUMPDEST STOP JUMPDEST CALLVALUE DUP1 ISZERO PUSH2 0xDE JUMPI PUSH0 DUP1 REVERT JUMPDEST POP PUSH2 0xF9 PUSH1 0x4 DUP1 CALLDATASIZE SUB DUP2 ADD SWAP1 PUSH2 0xF4 SWAP2 SWAP1 PUSH2 0x47B JUMP JUMPDEST PUSH2 0x27F JUMP JUMPDEST PUSH1 0x40 MLOAD PUSH2 0x106 SWAP2 SWAP1 PUSH2 0x4B5 JUMP JUMPDEST PUSH1 0x40 MLOAD DUP1 SWAP2 SUB SWAP1 RETURN JUMPDEST PUSH0 SLOAD DUP2 JUMP JUMPDEST PUSH0 JUMPDEST PUSH1 0x1 DUP1 SLOAD SWAP1 POP DUP2 LT ISZERO PUSH2 0x130 JUMPI DUP1 DUP1 PUSH1 0x1 ADD SWAP2 POP POP PUSH2 0x116 JUMP JUMPDEST POP JUMP JUMPDEST PUSH1 0x2 PUSH1 0x20 MSTORE DUP1 PUSH0 MSTORE PUSH1 0x40 PUSH0 KECCAK256 PUSH0 SWAP2 POP SWAP1 POP SLOAD DUP2 JUMP JUMPDEST PUSH0 SLOAD PUSH2 0x153 CALLVALUE PUSH2 0x2BA JUMP JUMPDEST GT PUSH2 0x193 JUMPI PUSH1 0x40 MLOAD PUSH32 0x8C379A000000000000000000000000000000000000000000000000000000000 DUP2 MSTORE PUSH1 0x4 ADD PUSH2 0x18A SWAP1 PUSH2 0x528 JUMP JUMPDEST PUSH1 0x40 MLOAD DUP1 SWAP2 SUB SWAP1 REVERT JUMPDEST PUSH1 0x1 CALLER SWAP1 DUP1 PUSH1 0x1 DUP2 SLOAD ADD DUP1 DUP3 SSTORE DUP1 SWAP2 POP POP PUSH1 0x1 SWAP1 SUB SWAP1 PUSH0 MSTORE PUSH1 0x20 PUSH0 KECCAK256 ADD PUSH0 SWAP1 SWAP2 SWAP1 SWAP2 SWAP1 SWAP2 PUSH2 0x100 EXP DUP2 SLOAD DUP2 PUSH20 0xFFFFFFFFFFFFFFFFFFFFFFFFFFFFFFFFFFFFFFFF MUL NOT AND SWAP1 DUP4 PUSH20 0xFFFFFFFFFFFFFFFFFFFFFFFFFFFFFFFFFFFFFFFF AND MUL OR SWAP1 SSTORE POP CALLVALUE PUSH1 0x2 PUSH0 CALLER PUSH20 0xFFFFFFFFFFFFFFFFFFFFFFFFFFFFFFFFFFFFFFFF AND PUSH20 0xFFFFFFFFFFFFFFFFFFFFFFFFFFFFFFFFFFFFFFFF AND DUP2 MSTORE PUSH1 0x20 ADD SWAP1 DUP2 MSTORE PUSH1 0x20 ADD PUSH0 KECCAK256 SLOAD PUSH2 0x23C SWAP2 SWAP1 PUSH2 0x573 JUMP JUMPDEST PUSH1 0x2 PUSH0 CALLER PUSH20 0xFFFFFFFFFFFFFFFFFFFFFFFFFFFFFFFFFFFFFFFF AND PUSH20 0xFFFFFFFFFFFFFFFFFFFFFFFFFFFFFFFFFFFFFFFF AND DUP2 MSTORE PUSH1 0x20 ADD SWAP1 DUP2 MSTORE PUSH1 0x20 ADD PUSH0 KECCAK256 DUP2 SWAP1 SSTORE POP JUMP JUMPDEST PUSH1 0x1 DUP2 DUP2 SLOAD DUP2 LT PUSH2 0x28E JUMPI PUSH0 DUP1 REVERT JUMPDEST SWAP1 PUSH0 MSTORE PUSH1 0x20 PUSH0 KECCAK256 ADD PUSH0 SWAP2 POP SLOAD SWAP1 PUSH2 0x100 EXP SWAP1 DIV PUSH20 0xFFFFFFFFFFFFFFFFFFFFFFFFFFFFFFFFFFFFFFFF AND DUP2 JUMP JUMPDEST PUSH0 DUP1 PUSH2 0x2C4 PUSH2 0x2F2 JUMP JUMPDEST SWAP1 POP PUSH0 PUSH8 0xDE0B6B3A7640000 DUP5 DUP4 PUSH2 0x2DC SWAP2 SWAP1 PUSH2 0x5A6 JUMP JUMPDEST PUSH2 0x2E6 SWAP2 SWAP1 PUSH2 0x614 JUMP JUMPDEST SWAP1 POP DUP1 SWAP3 POP POP POP SWAP2 SWAP1 POP JUMP JUMPDEST PUSH0 DUP1 PUSH20 0x694AA1769357215DE4FAC081BF1F309ADC325306 SWAP1 POP PUSH0 DUP2 PUSH20 0xFFFFFFFFFFFFFFFFFFFFFFFFFFFFFFFFFFFFFFFF AND PUSH4 0xFEAF968C PUSH1 0x40 MLOAD DUP2 PUSH4 0xFFFFFFFF AND PUSH1 0xE0 SHL DUP2 MSTORE PUSH1 0x4 ADD PUSH1 0xA0 PUSH1 0x40 MLOAD DUP1 DUP4 SUB DUP2 DUP7 GAS STATICCALL ISZERO DUP1 ISZERO PUSH2 0x355 JUMPI RETURNDATASIZE PUSH0 DUP1 RETURNDATACOPY RETURNDATASIZE PUSH0 REVERT JUMPDEST POP POP POP POP PUSH1 0x40 MLOAD RETURNDATASIZE PUSH1 0x1F NOT PUSH1 0x1F DUP3 ADD AND DUP3 ADD DUP1 PUSH1 0x40 MSTORE POP DUP2 ADD SWAP1 PUSH2 0x379 SWAP2 SWAP1 PUSH2 0x6CA JUMP JUMPDEST POP POP POP SWAP2 POP POP PUSH5 0x2540BE400 DUP2 PUSH2 0x390 SWAP2 SWAP1 PUSH2 0x741 JUMP JUMPDEST SWAP3 POP POP POP SWAP1 JUMP JUMPDEST PUSH0 DUP2 SWAP1 POP SWAP2 SWAP1 POP JUMP JUMPDEST PUSH2 0x3A9 DUP2 PUSH2 0x397 JUMP JUMPDEST DUP3 MSTORE POP POP JUMP JUMPDEST PUSH0 PUSH1 0x20 DUP3 ADD SWAP1 POP PUSH2 0x3C2 PUSH0 DUP4 ADD DUP5 PUSH2 0x3A0 JUMP JUMPDEST SWAP3 SWAP2 POP POP JUMP JUMPDEST PUSH0 DUP1 REVERT JUMPDEST PUSH0 PUSH20 0xFFFFFFFFFFFFFFFFFFFFFFFFFFFFFFFFFFFFFFFF DUP3 AND SWAP1 POP SWAP2 SWAP1 POP JUMP JUMPDEST PUSH0 PUSH2 0x3F5 DUP3 PUSH2 0x3CC JUMP JUMPDEST SWAP1 POP SWAP2 SWAP1 POP JUMP JUMPDEST PUSH2 0x405 DUP2 PUSH2 0x3EB JUMP JUMPDEST DUP2 EQ PUSH2 0x40F JUMPI PUSH0 DUP1 REVERT JUMPDEST POP JUMP JUMPDEST PUSH0 DUP2 CALLDATALOAD SWAP1 POP PUSH2 0x420 DUP2 PUSH2 0x3FC JUMP JUMPDEST SWAP3 SWAP2 POP POP JUMP JUMPDEST PUSH0 PUSH1 0x20 DUP3 DUP5 SUB SLT ISZERO PUSH2 0x43B JUMPI PUSH2 0x43A PUSH2 0x3C8 JUMP JUMPDEST JUMPDEST PUSH0 PUSH2 0x448 DUP5 DUP3 DUP6 ADD PUSH2 0x412 JUMP JUMPDEST SWAP2 POP POP SWAP3 SWAP2 POP POP JUMP JUMPDEST PUSH2 0x45A DUP2 PUSH2 0x397 JUMP JUMPDEST DUP2 EQ PUSH2 0x464 JUMPI PUSH0 DUP1 REVERT JUMPDEST POP JUMP JUMPDEST PUSH0 DUP2 CALLDATALOAD SWAP1 POP PUSH2 0x475 DUP2 PUSH2 0x451 JUMP JUMPDEST SWAP3 SWAP2 POP POP JUMP JUMPDEST PUSH0 PUSH1 0x20 DUP3 DUP5 SUB SLT ISZERO PUSH2 0x490 JUMPI PUSH2 0x48F PUSH2 0x3C8 JUMP JUMPDEST JUMPDEST PUSH0 PUSH2 0x49D DUP5 DUP3 DUP6 ADD PUSH2 0x467 JUMP JUMPDEST SWAP2 POP POP SWAP3 SWAP2 POP POP JUMP JUMPDEST PUSH2 0x4AF DUP2 PUSH2 0x3EB JUMP JUMPDEST DUP3 MSTORE POP POP JUMP JUMPDEST PUSH0 PUSH1 0x20 DUP3 ADD SWAP1 POP PUSH2 0x4C8 PUSH0 DUP4 ADD DUP5 PUSH2 0x4A6 JUMP JUMPDEST SWAP3 SWAP2 POP POP JUMP JUMPDEST PUSH0 DUP3 DUP3 MSTORE PUSH1 0x20 DUP3 ADD SWAP1 POP SWAP3 SWAP2 POP POP JUMP JUMPDEST PUSH32 0x446964206E6F742073656E6420656E6F75676820657468657273000000000000 PUSH0 DUP3 ADD MSTORE POP JUMP JUMPDEST PUSH0 PUSH2 0x512 PUSH1 0x1A DUP4 PUSH2 0x4CE JUMP JUMPDEST SWAP2 POP PUSH2 0x51D DUP3 PUSH2 0x4DE JUMP JUMPDEST PUSH1 0x20 DUP3 ADD SWAP1 POP SWAP2 SWAP1 POP JUMP JUMPDEST PUSH0 PUSH1 0x20 DUP3 ADD SWAP1 POP DUP2 DUP2 SUB PUSH0 DUP4 ADD MSTORE PUSH2 0x53F DUP2 PUSH2 0x506 JUMP JUMPDEST SWAP1 POP SWAP2 SWAP1 POP JUMP JUMPDEST PUSH32 0x4E487B7100000000000000000000000000000000000000000000000000000000 PUSH0 MSTORE PUSH1 0x11 PUSH1 0x4 MSTORE PUSH1 0x24 PUSH0 REVERT JUMPDEST PUSH0 PUSH2 0x57D DUP3 PUSH2 0x397 JUMP JUMPDEST SWAP2 POP PUSH2 0x588 DUP4 PUSH2 0x397 JUMP JUMPDEST SWAP3 POP DUP3 DUP3 ADD SWAP1 POP DUP1 DUP3 GT ISZERO PUSH2 0x5A0 JUMPI PUSH2 0x59F PUSH2 0x546 JUMP JUMPDEST JUMPDEST SWAP3 SWAP2 POP POP JUMP JUMPDEST PUSH0 PUSH2 0x5B0 DUP3 PUSH2 0x397 JUMP JUMPDEST SWAP2 POP PUSH2 0x5BB DUP4 PUSH2 0x397 JUMP JUMPDEST SWAP3 POP DUP3 DUP3 MUL PUSH2 0x5C9 DUP2 PUSH2 0x397 JUMP JUMPDEST SWAP2 POP DUP3 DUP3 DIV DUP5 EQ DUP4 ISZERO OR PUSH2 0x5E0 JUMPI PUSH2 0x5DF PUSH2 0x546 JUMP JUMPDEST JUMPDEST POP SWAP3 SWAP2 POP POP JUMP JUMPDEST PUSH32 0x4E487B7100000000000000000000000000000000000000000000000000000000 PUSH0 MSTORE PUSH1 0x12 PUSH1 0x4 MSTORE PUSH1 0x24 PUSH0 REVERT JUMPDEST PUSH0 PUSH2 0x61E DUP3 PUSH2 0x397 JUMP JUMPDEST SWAP2 POP PUSH2 0x629 DUP4 PUSH2 0x397 JUMP JUMPDEST SWAP3 POP DUP3 PUSH2 0x639 JUMPI PUSH2 0x638 PUSH2 0x5E7 JUMP JUMPDEST JUMPDEST DUP3 DUP3 DIV SWAP1 POP SWAP3 SWAP2 POP POP JUMP JUMPDEST PUSH0 PUSH10 0xFFFFFFFFFFFFFFFFFFFF DUP3 AND SWAP1 POP SWAP2 SWAP1 POP JUMP JUMPDEST PUSH2 0x662 DUP2 PUSH2 0x644 JUMP JUMPDEST DUP2 EQ PUSH2 0x66C JUMPI PUSH0 DUP1 REVERT JUMPDEST POP JUMP JUMPDEST PUSH0 DUP2 MLOAD SWAP1 POP PUSH2 0x67D DUP2 PUSH2 0x659 JUMP JUMPDEST SWAP3 SWAP2 POP POP JUMP JUMPDEST PUSH0 DUP2 SWAP1 POP SWAP2 SWAP1 POP JUMP JUMPDEST PUSH2 0x695 DUP2 PUSH2 0x683 JUMP JUMPDEST DUP2 EQ PUSH2 0x69F JUMPI PUSH0 DUP1 REVERT JUMPDEST POP JUMP JUMPDEST PUSH0 DUP2 MLOAD SWAP1 POP PUSH2 0x6B0 DUP2 PUSH2 0x68C JUMP JUMPDEST SWAP3 SWAP2 POP POP JUMP JUMPDEST PUSH0 DUP2 MLOAD SWAP1 POP PUSH2 0x6C4 DUP2 PUSH2 0x451 JUMP JUMPDEST SWAP3 SWAP2 POP POP JUMP JUMPDEST PUSH0 DUP1 PUSH0 DUP1 PUSH0 PUSH1 0xA0 DUP7 DUP9 SUB SLT ISZERO PUSH2 0x6E3 JUMPI PUSH2 0x6E2 PUSH2 0x3C8 JUMP JUMPDEST JUMPDEST PUSH0 PUSH2 0x6F0 DUP9 DUP3 DUP10 ADD PUSH2 0x66F JUMP JUMPDEST SWAP6 POP POP PUSH1 0x20 PUSH2 0x701 DUP9 DUP3 DUP10 ADD PUSH2 0x6A2 JUMP JUMPDEST SWAP5 POP POP PUSH1 0x40 PUSH2 0x712 DUP9 DUP3 DUP10 ADD PUSH2 0x6B6 JUMP JUMPDEST SWAP4 POP POP PUSH1 0x60 PUSH2 0x723 DUP9 DUP3 DUP10 ADD PUSH2 0x6B6 JUMP JUMPDEST SWAP3 POP POP PUSH1 0x80 PUSH2 0x734 DUP9 DUP3 DUP10 ADD PUSH2 0x66F JUMP JUMPDEST SWAP2 POP POP SWAP3 SWAP6 POP SWAP3 SWAP6 SWAP1 SWAP4 POP JUMP JUMPDEST PUSH0 PUSH2 0x74B DUP3 PUSH2 0x683 JUMP JUMPDEST SWAP2 POP PUSH2 0x756 DUP4 PUSH2 0x683 JUMP JUMPDEST SWAP3 POP DUP3 DUP3 MUL PUSH2 0x764 DUP2 PUSH2 0x683 JUMP JUMPDEST SWAP2 POP PUSH32 0x8000000000000000000000000000000000000000000000000000000000000000 DUP5 EQ PUSH0 DUP5 SLT AND ISZERO PUSH2 0x79B JUMPI PUSH2 0x79A PUSH2 0x546 JUMP JUMPDEST JUMPDEST DUP3 DUP3 SDIV DUP5 EQ DUP4 ISZERO OR PUSH2 0x7B0 JUMPI PUSH2 0x7AF PUSH2 0x546 JUMP JUMPDEST JUMPDEST POP SWAP3 SWAP2 POP POP JUMP INVALID LOG2 PUSH5 0x6970667358 0x22 SLT KECCAK256 RETURNDATACOPY 0x1E STATICCALL PUSH13 0x7D1F4C9C2A461CDBE7EED7A731 JUMPDEST DUP12 0xD7 LT PUSH18 0x8DC28F6039ABBBC4F98764736F6C63430008 XOR STOP CALLER "
				},
				"gasEstimates": {
					"creation": {
						"codeDepositCost": "405800",
						"executionCost": "22546",
						"totalCost": "428346"
					},
					"external": {
						"addressToAmountFunded(address)": "2824",
						"fund()": "infinite",
						"funders(uint256)": "5010",
						"minimumUSD()": "2402",
						"withdraw()": "infinite"
					}
				},
				"methodIdentifiers": {
					"addressToAmountFunded(address)": "3e47d6f3",
					"fund()": "b60d4288",
					"funders(uint256)": "dc0d3dff",
					"minimumUSD()": "3430a88c",
					"withdraw()": "3ccfd60b"
				}
			},
			"storageLayout": {
				"storage": [
					{
						"astId": 55,
						"contract": "contracts-2/FundMe.sol:FundMe",
						"label": "minimumUSD",
						"offset": 0,
						"slot": "0",
						"type": "t_uint256"
					},
					{
						"astId": 58,
						"contract": "contracts-2/FundMe.sol:FundMe",
						"label": "funders",
						"offset": 0,
						"slot": "1",
						"type": "t_array(t_address)dyn_storage"
					},
					{
						"astId": 62,
						"contract": "contracts-2/FundMe.sol:FundMe",
						"label": "addressToAmountFunded",
						"offset": 0,
						"slot": "2",
						"type": "t_mapping(t_address,t_uint256)"
					}
				],
				"types": {
					"t_address": {
						"encoding": "inplace",
						"label": "address",
						"numberOfBytes": "20"
					},
					"t_array(t_address)dyn_storage": {
						"base": "t_address",
						"encoding": "dynamic_array",
						"label": "address[]",
						"numberOfBytes": "32"
					},
					"t_mapping(t_address,t_uint256)": {
						"encoding": "mapping",
						"key": "t_address",
						"label": "mapping(address => uint256)",
						"numberOfBytes": "32",
						"value": "t_uint256"
					},
					"t_uint256": {
						"encoding": "inplace",
						"label": "uint256",
						"numberOfBytes": "32"
					}
				}
			},
			"userdoc": {
				"kind": "user",
				"methods": {},
				"version": 1
			}
		}
	}
}